:1000000052C053C269C068C067C066C065C064C0E2
:1000100063C062C061C060C05FC05EC05DC05CC0E4
:100020005BC05AC059C00902430002010080320976
:100030000400000102020100052400100104240252
:1000400002052406000105240103010705830308B6
:1000500000FF09040100020A000000070501020870
:1000600000000705810208000012011001020000D3
:1000700008C016E1050001010200011003550053FC
:100080000042002D0032003300320010034D004FBB
:1000900000530054004C0059005F004F004F0053C4
:1000A00000040309040011241FBECFEDCDBF10E0F2
:1000B000A0E6B0E0ECEFF7E002C005900D92A236AA
:1000C000B107D9F710E0A2E6B0E001C01D92A83C4C
:1000D000B107E1F732D390C393CFFC018381813024
:1000E00049F489E690E09093A1008093A00080916C
:1000F0006900089586E290E09093A1008093A000AB
:1001000083E40895FC0120812076203231F481813E
:100110008052823010F48FEF089580E0089527E038
:10012000E2E6F0E0DC0101900D922A95E1F787E02C
:100130000895FC012081318180E003C028553240C0
:100140008F5F21153105D1F720EC39E003C03695DA
:10015000279586958130D9F72150310929B932B9CF
:1001600082E08BB988E18AB987E0A2E6B0E001902D
:100170000D928A95E1F781E00895209169000BC006
:10018000E22FF0E0E659FF4FDC013D91CD013083D5
:100190002F5F2F7061506111F3CF209369008FEFB3
:1001A0008093A2000895EF92FF92CF93382F792F7A
:1001B000C62F7A01FA01808184FF05C0218188E879
:1001C0002827218303C08AE5FA018083C7010296AC
:1001D000E32FF72FDC013C2F380F21912D93232F94
:1001E0002A1B1216D4F36C2F5CD1CC5FF701C083AD
:1001F000CF91FF90EF90089541E950E0D4CF4CEBC0
:1002000050E0D1CFEF92FF92CF936091A200635064
:1002100067FDB9C080919F009CE0E92EF12CE81A9F
:10022000F10886EA90E0E80EF91E80919E00803188
:1002300018F4C701A2DFA1C08D3209F08FC0683069
:1002400009F09BC083EC809386008AE58093600070
:1002500010928500F7018081807619F0C70152DF86
:1002600069C0F701928110928F008181811106C0CF
:10027000109290002FE830E082E058C0853019F4E9
:100280009093A30050C08630B1F5F701838181308F
:1002900041F489E690E09093A1008093A00082E170
:1002A00026C0823019F4C70118DF21C08330F1F471
:1002B000911108C081EA90E09093A1008093A00082
:1002C00084E015C0913041F48BE890E09093A10058
:1002D0008093A00086E10BC0923041F48BE790E060
:1002E0009093A1008093A00080E101C080E090E4A1
:1002F000909385001FC0883079F0893019F490936D
:10030000A50011C08A3059F08B3069F48BE48093DA
:1003100092008093BD0007C025EA30E002C02FE8BC
:1003200030E081E003C02FE830E080E03093A100AE
:100330002093A000F7018F3F39F4908197FD8681CB
:1003400090E89093850007C09781911104C0968131
:10035000981708F4892F809361000FC08091850061
:1003600087FF0BC0C701E5DE8F3F21F48EE180934C
:10037000600003C08111109261008091A2001816E4
:1003800014F41092A2008091600084FF56C0809106
:1003900061008F3F09F451C0C82F893008F0C8E0D0
:1003A0008C1B809361008091860098E88927809358
:1003B0008600CC2389F18091850087FF06C06C2FD1
:1003C00087E890E0ACDEC82F25C04091A000509196
:1003D000A10086FF0BC0FA01A7E8B0E08C2F8A0FBE
:1003E00094919D9331968A13FBCF09C0DA01E7E817
:1003F000F0E08C2F8E0F9D9191938E13FCCF2C2FBC
:10040000215030E02F5F3F4F240F351F3093A10064
:100410002093A000C93058F46C2F87E890E041D0B9
:10042000CC5FCC3041F08FEF8093610004C08FEF40
:1004300080936100CEE1C093600084E190B39C7032
:1004400031F48150D9F71092A30010929D00CF9102
:10045000FF90EF90089585B7826085BF8BB7806469
:100460008BBF8BE4809392008093BD008AE58093DC
:1004700091008093BC000895A82FB92F80E090E0F0
:1004800041E050EA609530E009C02D9182279795B0
:10049000879510F084279527305EC8F36F5FA8F327
:1004A0000895EADF8D939D930895CF93CFB7CF93AF
:1004B000C395839BE9F7839B09C0839B07C0839BFC
:1004C00005C0839B03C0839B01C0A6C0DF93C0917E
:1004D0009F00DD27CA55DF4F839B02C0DF91EBCF22
:1004E0002F930F931F9300B32FEF03FB20F94F932C
:1004F0003F9310B34FEF012703FB21F93BE031C0DD
:100500004E7F012F10B3216028C0102F4D7F226035
:10051000000000B329C04B7F2460012F000010B3FE
:100520002BC010B3477F28602AC04F7E00B32061E4
:100530002CC04F7D10B320622FC04F7B00B32064CE
:1005400032C0422700B349934FEF0000102713FB3E
:1005500020F910B31C70C9F1297F91F2012703FB28
:1005600021F900B3237F89F2315058F1102713FB92
:1005700022F910B3277E79F2012703FB23F92F7CA0
:1005800081F200B3102713FB24F92F7971F200C018
:1005900010B3012703FB25F92F7359F200C000B3F4
:1005A000102713FB26F9223040F200C010B30127B8
:1005B00003FB27F9243028F64F77206810B300009A
:1005C000F9CF10E41ABF00271CC03B503195C31B64
:1005D000D04010E41ABF0881033C11F10B3401F143
:1005E00020919D001981110F1213EDCF4A81441FF4
:1005F000093659F10D3211F0013E29F74F7009F01B
:10060000042F0093A4003F914F911F910F912F91C0
:10061000DF91CAB7C6FD4CCFCF91CFBFCF91189510
:100620002091A400222379F31091A2001123C1F597
:100630003430C2F13093A20020939E0010919F00AD
:100640003BE0311B30939F002DC00091A200013090
:100650003CF50AE54F7049F43091600034FD24C048
:1006600000936000C6E8D0E023C0433049F03091E9
:10067000910034FD19C000939100C2E9D0E018C088
:100680003091BC0034FD10C00093BC00CDEBD0E035
:100690000FC02795A8F45150A9F4220F0000F9CFFC
:1006A0004AE503C042ED01C0432FC4E1D0E032E08F
:1006B00011B31C60939A11BB02B320E41CE05F935A
:1006C000012756E002BB279520F4515021F4220F58
:1006D000F9CF012756E000003B5A02BBD0F2279524
:1006E00028F4515029F4220F0000F9CF012756E0D9
:1006F000279502BB20F4515021F4220FF9CF012796
:1007000056E02991332302BB21F6037F1091A30009
:10071000110FC651D04002BB11F010939D0010E4A0
:100720001ABF086011B3137F402F437F5F9100C051
:1007300000C002BB11BB42BB66CF83EF82BB8CE023
:1007400081BB2FE006C0A89502C080E090E0019731
:10075000D1F72150D1F711BA8FEF88BB7CDE7894A6
:10076000A89550DD5D9B10C080917A009091690042
:10077000981751F0E82FF0E0E659FF4F90819CB9AF
:100780008F5F8F7080937A008091A20087FF0DC0E9
:100790008091690090E020917A00821B91098F700E
:1007A0009927089714F41092A2005F9B0DC08091C6
:1007B0007B00883048F49CB1E82FF0E0E458FF4F0C
:1007C00090838F5F80937B008091910084FFC8CFDE
:1007D00060917B00611105C080918400882309F439
:1007E000BFCF8CE790E008DD80917B00887080931C
:0C07F000840010927B00B4CFF894FFCF7F
:0207FC005AFFA2
:00000001FF
