:1000000058C0B0C26FC06EC06DC06CC06BC06AC05B
:1000100069C068C067C066C065C064C063C062C0B4
:1000200061C060C05FC00902430002010080320964
:100030000400000102020100052400100104240252
:1000400002052406000105240103010705830308B6
:1000500000FF09040100020A000000070501020870
:100060000000070581020800000403090422037749
:1000700000770077002E0072006500630075007243
:1000800000730069006F006E002E006A007000109F
:10009000035500530042002D00320033003200129D
:1000A00001100102000008C016E105000101020074
:1000B000010011241FBECFEDCDBF10E0A0E6B0E0DF
:1000C000E8EFF7E002C005900D92A236B107D9F72C
:1000D00010E0A2E6B0E001C01D92A83CB107E1F734
:1000E00039D088C38DCFFC018381813049F48FE9F9
:1000F00090E09093A1008093A00080919F000895CC
:1001000086E290E09093A1008093A00083E408959C
:10011000FC0180818076803231F48181805282308E
:1001200010F48FEF089580E00895DC0190916B004A
:1001300009C0E92FF0E0EB58FF4F8D9180839F5F5E
:100140009F7061506623A9F790936B008FEF8093A7
:10015000A200089583EF82BB8CE081BB2FE003C037
:10016000A8950197E9F7215019F080E090E0F9CFC8
:1001700011BA8FEF88BB79D07894A895B2D05D9BE7
:1001800010C090916C0080916B00891751F0E92F9D
:10019000F0E0EB58FF4F80818CB99F5F9F70909388
:1001A0006C008091A20087FF0DC080916B0090E0F1
:1001B00020916C00821B91098F709070089714F445
:1001C0001092A2005F9B0DC090916A00983048F495
:1001D0008CB1E92FF0E0E359FF4F80839F5F90934C
:1001E0006A008091910084FFC8CF60916A00662305
:1001F00029F480916200882309F4BFCF8DE690E056
:100200006CD080916A0088708093620010926A00BE
:10021000B4CFFC018081918120E003C088559240D9
:100220002F5F0097D9F780EC99E003C096958795EA
:1002300026952130D9F7019789B992B982E08BB917
:1002400088E18AB9A3E6B0E087E001900D92815081
:10025000E1F781E00895DC01E3E6F0E087E001905A
:100260000D928150E1F787E0089585B7826085BFE0
:100270008BB780648BBF8BE4809392008093BD002A
:100280008AE5809391008093BC0008951F93CF93DB
:10029000DF93DC01162FEA01888184FF05C0898184
:1002A00098E88927898302C08AE58883AE014E5F7A
:1002B0005F4F212FFA018D91819321501216DCF3AB
:1002C000CA01612F4BD11C5F1883DF91CF911F9121
:1002D00008954CEB50E0DADF089541E950E0D6DFB5
:1002E00008951F93CF93DF936091A200635067FD41
:1002F000B6C080919F00CCE0D0E0C81BD109CA55A0
:10030000DF4F80919E00803118F4CE010EDFA1C036
:100310008D3209F08EC0683009F09BC083EC809369
:1003200086008AE58093600010928500888180763F
:1003300021F0CE01EDDE282F69C09A8110928F0046
:100340008981882331F4109290008FE890E022E0B8
:1003500058C0853019F49093A30050C08630B9F589
:100360008B81813041F48FE990E09093A1008093DC
:10037000A00022E128C0823021F4CE01B4DE282F73
:1003800022C08330F9F48A81882341F489E690E021
:100390009093A1008093A00024E015C0813041F427
:1003A0008DE690E09093A1008093A00022E20BC024
:1003B000823041F48FE890E09093A1008093A000F8
:1003C00020E101C020E080E4809385001FC08830D8
:1003D00019F485EA90E009C0893019F49093A500DA
:1003E0000DC08A3021F48FE890E021E00AC08B3004
:1003F00029F48BE4809392008093BD008FE890E015
:1004000020E09093A1008093A00009C02F3F39F411
:10041000888187FD2E8180E88093850006C08F81CA
:10042000882319F48E81821708F0822F809361004F
:1004300010C08091850087FF0CC0CE01EADE8F3F9F
:1004400021F48EE18093600004C0882311F01092A3
:1004500061008091A200181614F41092A2008091FD
:10046000600084FF58C0809161008F3F09F453C041
:10047000182F893008F018E0811B8093610080916B
:10048000860098E8892780938600112391F1809156
:10049000850087FF08C087E890E0612FDCDE182F19
:1004A000893098F526C02091A0003091A10086FFE8
:1004B0000DC0A7E8B0E080E090E0F901E80FF91F77
:1004C000E491ED9301961817C1F708C0D901912F57
:1004D000E7E8F0E08D9181939150E1F71150812F81
:1004E00090E01F5F0196820F931F9093A10080936D
:1004F000A00087E890E0612F31D0612F6C5F6C30F5
:1005000041F08FEF8093610004C08FEF8093610012
:100510006EE16093600094E180B38C7031F491508F
:10052000D9F71092A30010929D00DF91CF911F91F7
:100530000895A82FB92F80E090E041E050EA60953F
:1005400030E009C02D9182279795879510F0842778
:100550009527305EC8F36F5FA8F30895EADF8D93A7
:100560009D930895CF93CFB7CF93C395839BE9F71E
:10057000839B09C0839B07C0839B05C0839B03C0EB
:10058000839B01C0A6C0DF93C0919F00DD27CA55A1
:10059000DF4F839B02C0DF91EBCF2F930F931F930D
:1005A00000B32FEF03FB20F94F933F9310B34FEFAE
:1005B000012703FB21F93BE031C04E7F012F10B32F
:1005C000216028C0102F4D7F2260000000B329C099
:1005D0004B7F2460012F000010B32BC010B3477F66
:1005E00028602AC04F7E00B320612CC04F7D10B31D
:1005F00020622FC04F7B00B3206432C0422700B37B
:1006000049934FEF0000102713FB20F910B31C7023
:10061000C9F1297F91F2012703FB21F900B3237F60
:1006200089F2315058F1102713FB22F910B3277EBD
:1006300079F2012703FB23F92F7C81F200B3102705
:1006400013FB24F92F7971F200C010B3012703FBCB
:1006500025F92F7359F200C000B3102713FB26F9B8
:10066000223040F200C010B3012703FB27F92430E9
:1006700028F64F77206810B30000F9CF10E41ABFB6
:1006800000271CC03B503195C31BD04010E41ABF5B
:100690000881033C11F10B3401F120919D00198177
:1006A000110F1213EDCF4A81441F093659F10D3253
:1006B00011F0013E29F74F7009F0042F0093A400B8
:1006C0003F914F911F910F912F91DF91CAB7C6FDB6
:1006D0004CCFCF91CFBFCF9118952091A40022236A
:1006E00079F31091A2001123C1F53430C2F1309397
:1006F000A20020939E0010919F003BE0311B30939D
:100700009F002DC00091A20001303CF50AE54F701A
:1007100049F43091600034FD24C000936000C6E8C5
:10072000D0E023C0433049F03091910034FD19C02E
:1007300000939100C2E9D0E018C03091BC0034FDB4
:1007400010C00093BC00CDEBD0E00FC02795A8F4FB
:100750005150A9F4220F0000F9CF4AE503C042ED41
:1007600001C0432FC4E1D0E032E011B31C60939A82
:1007700011BB02B320E41CE05F93012756E002BBEB
:10078000279520F4515021F4220FF9CF012756E08C
:1007900000003B5A02BBD0F2279528F4515029F4AF
:1007A000220F0000F9CF012756E0279502BB20F465
:1007B000515021F4220FF9CF012756E0299133231C
:1007C00002BB21F6037F1091A300110FC651D04048
:1007D00002BB11F010939D0010E41ABF086011B322
:1007E000137F402F437F5F9100C000C002BB11BB4D
:0807F00042BB66CFF894FFCF75
:0207F8005AFFA6
:00000001FF
