:1000000058C0C8C26FC06EC06DC06CC06BC06AC043
:1000100069C068C067C066C065C064C063C062C0B4
:1000200061C060C05FC00902430002010080320964
:100030000400000102020100052400100104240252
:1000400002052406000105240103010705830308B6
:1000500000FF09040100020A000000070501020870
:100060000000070581020800000403090422037749
:1000700000770077002E0072006500630075007243
:1000800000730069006F006E002E006A007000109F
:10009000035500530042002D00320033003200129D
:1000A00001100102000008C016E105000101020074
:1000B000010011241FBECFEDCDBF10E0A0E6B0E0DF
:1000C000E4EEF7E002C005900D92A236B107D9F731
:1000D00010E0A2E6B0E001C01D92A83CB107E1F734
:1000E00047D07EC38DCFFC018381813049F48FE9F5
:1000F00090E09093A1008093A00080919F000895CC
:1001000086E290E09093A1008093A00083E408959C
:10011000FC01808180768032A1F49181892F805208
:10012000823010F48FEF0895923259F498B382819F
:1001300081708295880F807E9F7D892B88BB80E0AF
:10014000089580E00895DC0190916B0009C0E92FCB
:10015000F0E0EB58FF4F8D9180839F5F9F7061505F
:100160006623A9F790936B008FEF8093A200089508
:1001700083EF82BB8CE081BB2FE003C0A895019781
:10018000E9F7215019F080E090E0F9CF11BA8FEF34
:1001900088BB87B3806687BB80D07894A895B9D098
:1001A0005D9B12C090916C0080916B00891761F08B
:1001B000B79B0AC0E92FF0E0EB58FF4F80818CB964
:1001C0009F5F9F7090936C008091A20087FF0DC08D
:1001D00080916B0090E020916C00821B91098F70E0
:1001E0009070089714F41092A2005F9B11C0909138
:1001F0006A00983068F48CB1E92FF0E0E359FF4FC2
:100200008083892F8F5F80936A00883009F4C698B5
:100210008091910084FFC2CF60916A00662329F427
:1002200080916200882309F4B9CF8DE690E06DD00B
:1002300080916A0088708093620010926A00C69A6A
:10024000ADCFFC018081918120E003C088559240B0
:100250002F5F0097D9F780E490E103C096958795CA
:1002600026952130D9F7019789B992B982E08BB9E7
:1002700088E18AB9A3E6B0E087E001900D92815051
:10028000E1F781E00895DC01E3E6F0E087E001902A
:100290000D928150E1F787E0089585B7826085BFB0
:1002A0008BB780648BBF8BE4809392008093BD00FA
:1002B0008AE5809391008093BC0008951F93CF93AB
:1002C000DF93DC01162FEA01888184FF05C0898154
:1002D00098E88927898302C08AE58883AE014E5F4A
:1002E0005F4F212FFA018D91819321501216DCF37B
:1002F000CA01612F4BD11C5F1883DF91CF911F91F1
:1003000008954CEB50E0DADF089541E950E0D6DF84
:1003100008951F93CF93DF936091A200635067FD10
:10032000B6C080919F00CCE0D0E0C81BD109CA556F
:10033000DF4F80919E00803118F4CE0104DFA1C010
:100340008D3209F08EC0683009F09BC083EC809339
:1003500086008AE58093600010928500888180760F
:1003600021F0CE01D5DE282F69C09A8110928F002E
:100370008981882331F4109290008FE890E022E088
:1003800058C0853019F49093A30050C08630B9F559
:100390008B81813041F48FE990E09093A1008093AC
:1003A000A00022E128C0823021F4CE019CDE282F5B
:1003B00022C08330F9F48A81882341F489E690E0F1
:1003C0009093A1008093A00024E015C0813041F4F7
:1003D0008DE690E09093A1008093A00022E20BC0F4
:1003E000823041F48FE890E09093A1008093A000C8
:1003F00020E101C020E080E4809385001FC08830A8
:1004000019F485EA90E009C0893019F49093A500A9
:100410000DC08A3021F48FE890E021E00AC08B30D3
:1004200029F48BE4809392008093BD008FE890E0E4
:1004300020E09093A1008093A00009C02F3F39F4E1
:10044000888187FD2E8180E88093850006C08F819A
:10045000882319F48E81821708F0822F809361001F
:1004600010C08091850087FF0CC0CE01EADE8F3F6F
:1004700021F48EE18093600004C0882311F0109273
:1004800061008091A200181614F41092A2008091CD
:10049000600084FF58C0809161008F3F09F453C011
:1004A000182F893008F018E0811B8093610080913B
:1004B000860098E8892780938600112391F1809126
:1004C000850087FF08C087E890E0612FDCDE182FE9
:1004D000893098F526C02091A0003091A10086FFB8
:1004E0000DC0A7E8B0E080E090E0F901E80FF91F47
:1004F000E491ED9301961817C1F708C0D901912F27
:10050000E7E8F0E08D9181939150E1F71150812F50
:1005100090E01F5F0196820F931F9093A10080933C
:10052000A00087E890E0612F31D0612F6C5F6C30C4
:1005300041F08FEF8093610004C08FEF80936100E2
:100540006EE16093600094E180B38C7031F491505F
:10055000D9F71092A30010929D00DF91CF911F91C7
:100560000895A82FB92F80E090E041E050EA60950F
:1005700030E009C02D9182279795879510F0842748
:100580009527305EC8F36F5FA8F30895EADF8D9377
:100590009D930895CF93CFB7CF93DF93C395839B5C
:1005A000E9F7839B11C0839B0FC0839B0DC0839B86
:1005B0000BC0839B09C0839B07C0839B05C0839BA3
:1005C00003C0839B01C086C06F93C0919F00DD274D
:1005D000CA55DF4F2F9320E400C065E0839B03C022
:1005E0002F916F91DECF0F931F934F9345E55F934C
:1005F00055E53F933BE014E000B30C702EC06A95C4
:10060000C9F03150D8F100B30C7001130BC008943D
:100610002795299320E4555500F46A9569F701E080
:1006200060B30BC0102F66E02695299320E4555542
:1006300018F3E2CF0FEF60B30000162F455500F01E
:10064000404066E01C700030E2F221F0000000B390
:100650000C7003C000B30C70A9F0011309C008941A
:10066000279568F200C06A95A9F700E060B3E5CF6E
:10067000102F66E0269528F20000ECCF10E41ABF98
:1006800000271CC03B503195C31BD04010E41ABF5B
:100690000881033C21F10B3411F120919D00198157
:1006A000110F1213EDCF4A81441F093669F10D3243
:1006B00011F0013E29F74F7009F0042F0093A400B8
:1006C0003F915F914F911F910F912F916F91CAB7F9
:1006D000C6FD64CFDF91CF91CFBFCF911895209108
:1006E000A400222369F31091A2001123D9F534301C
:1006F000DAF13093A20020939E0010919F003BE01E
:10070000311B30939F0030C00091A200013054F59E
:100710000AE54F7049F43091600034FD26C0009323
:100720006000C6E8D0E025C0433049F03091910028
:1007300034FD1BC000939100C2E9D0E01AC0309193
:10074000BC0034FD12C00093BC00CDEBD0E011C062
:10075000052710E000C002BB19C0052710E0221FCA
:1007600000C01DC04AE502C032ED432FC4E1D0E015
:1007700032E011B31C60939A02B311BB5CE020E835
:1007800069E420FF052702BB2795179500C00000EC
:100790001C3FF0F66695A8F7A1F720FF052702BBDE
:1007A0002795179500001C3FC0F629913A9541F70F
:1007B000037F1091A300110F02BBC651D04011F06E
:1007C00010939D0010E41ABF086011B3137F402FEF
:1007D000437F55E05A95F1F702BB11BB42BB70CF86
:0407E000F894FFCFBB
:0207E4005AFFBA
:00000001FF
