:1000000052C061C269C068C067C066C065C064C0D4
:1000100063C062C061C060C05FC05EC05DC05CC0E4
:100020005BC05AC059C00902430002010080320976
:100030000400000102020100052400100104240252
:1000400002052406000105240103010705830308B6
:1000500000FF09040100020A000000070501020870
:1000600000000705810208000012011001020000D3
:1000700008C016E1050001010200011003550053FC
:100080000042002D0032003300320010034D004FBB
:1000900000530054004C0059005F004F004F0053C4
:1000A00000040309040011241FBECFEDCDBF10E0F2
:1000B000A0E6B0E0E8EFF7E002C005900D92A236AE
:1000C000B107D9F710E0A2E6B0E001C01D92A83C4C
:1000D000B107E1F727D38EC393CFFC018381813031
:1000E00049F489E690E09093A1008093A00080916C
:1000F0006900089586E290E09093A1008093A000AB
:1001000083E40895FC01808180768032A1F48181AE
:10011000982F9052923068F0823269F488B38F7DC4
:10012000928190FD02C090E201C090E0892B88BBD3
:1001300002C08FEF089580E0089527E0E2E6F0E046
:10014000DC0101900D922A95E1F787E00895FC010A
:100150002081318180E003C0285532408F5F211516
:100160003105D1F720E03DE003C03695279586950F
:100170008130D9F72150310929B932B982E08BB9E0
:1001800088E18AB987E0A2E6B0E001900D928A95F5
:10019000E1F781E00895209169000BC0E22FF0E0C3
:1001A000E659FF4FDC013D91CD0130832F5F2F7069
:1001B00061506111F3CF209369008FEF8093A2000B
:1001C0000895EF92FF92CF93382F792FC62F7A019F
:1001D000FA01808184FF05C0218188E828272183D6
:1001E00003C08AE5FA018083C7010296E32FF72F47
:1001F000DC013C2F380F21912D93232F2A1B12163F
:10020000D4F36C2F5CD1CC5FF701C083CF91FF900A
:10021000EF90089541E950E0D4CF4CEB50E0D1CFBE
:10022000EF92FF92CF936091A200635067FDB9C037
:1002300080919F009CE0E92EF12CE81AF10886EAF3
:1002400090E0E80EF91E80919E00803118F4C701FD
:10025000A2DFA1C08D3209F08FC0683009F09BC0C9
:1002600083EC809386008AE580936000109285007D
:10027000F7018081807619F0C70144DF69C0F7017A
:10028000928110928F008181811106C0109290009E
:100290002FE830E082E058C0853019F49093A30035
:1002A00050C08630B1F5F7018381813041F489E691
:1002B00090E09093A1008093A00082E126C082305C
:1002C00019F4C7010ADF21C08330F1F4911108C08D
:1002D00081EA90E09093A1008093A00084E015C093
:1002E000913041F48BE890E09093A1008093A000BE
:1002F00086E10BC0923041F48BE790E09093A1002F
:100300008093A00080E101C080E090E4909385009C
:100310001FC0883079F0893019F49093A50011C07E
:100320008A3059F08B3069F48BE48093920080938B
:10033000BD0007C025EA30E002C02FE830E081E0D0
:1003400003C02FE830E080E03093A1002093A000AC
:10035000F7018F3F39F4908197FD868190E8909363
:10036000850007C09781911104C09681981708F401
:10037000892F809361000FC08091850087FF0BC09B
:10038000C701E5DE8F3F21F48EE18093600003C05A
:100390008111109261008091A200181614F410923D
:1003A000A2008091600084FF56C0809161008F3F61
:1003B00009F451C0C82F893008F0C8E08C1B809325
:1003C00061008091860098E8892780938600CC237D
:1003D00089F18091850087FF06C06C2F87E890E047
:1003E000ACDEC82F25C04091A0005091A10086FF2F
:1003F0000BC0FA01A7E8B0E08C2F8A0F94919D936F
:1004000031968A13FBCF09C0DA01E7E8F0E08C2FC0
:100410008E0F9D9191938E13FCCF2C2F215030E0A5
:100420002F5F3F4F240F351F3093A1002093A00072
:10043000C93058F46C2F87E890E041D0CC5FCC30C5
:1004400041F08FEF8093610004C08FEF80936100D3
:10045000CEE1C093600084E190B39C7031F4815090
:10046000D9F71092A30010929D00CF91FF90EF90CA
:10047000089585B7826085BF8BB780648BBF8BE49E
:10048000809392008093BD008AE5809391008093D1
:10049000BC000895A82FB92F80E090E041E050EA19
:1004A000609530E009C02D9182279795879510F0CF
:1004B00084279527305EC8F36F5FA8F30895EADFBD
:1004C0008D939D930895CF93CFB7CF93DF93C3952B
:1004D000839BE9F7839B0BC0839B09C0839B07C069
:1004E000839B05C0839B03C0839B01C08EC06F9319
:1004F000C0919F00DD27CA55DF4F2F9365E5839B91
:1005000003C02F916F91E6CF0F931F934F9320E07D
:1005100040E15F9300B30C7003FB27F93F9350E079
:100520003BE039C01C7040642F77012F5F5F1EC015
:10053000406810B31C702F7752501FC0406400B346
:100540002F770C70D1F15F5F00C023C0406210B301
:100550002F771C7091F15F5F00C025C00C701027D1
:10056000515012F45D5F0000115027952C3F10B3DD
:10057000C8F61C700127015027952C3FC8F642276A
:10058000499300B30C7010274F73115027952C3FDF
:10059000A8F64695469510B31C7079F001270150D6
:1005A00027952C3F98F66B5A60F3315000B3B0F6A4
:1005B00000C010E41ABF00271CC03B503195C31B7C
:1005C000D04010E41ABF0881033C21F10B3411F133
:1005D00020919D001981110F1213EDCF4A81441F04
:1005E000093669F10D3211F0013E29F74F7009F01B
:1005F000042F0093A4003F915F914F911F910F91A1
:100600002F916F91CAB7C6FD62CFDF91CF91CFBF57
:10061000CF9118952091A400222369F31091A20094
:100620001123E9F53430EAF13093A20020939E00C3
:1006300010919F003BE0311B30939F0032C000912E
:10064000A200013064F50AE54F7049F43091600072
:1006500034FD28C000936000C6E8D0E027C04330D6
:1006600049F03091910034FD1DC000939100C2E922
:10067000D0E01CC03091BC0034FD14C00093BC001D
:10068000CDEBD0E013C0052710E000C0000002BB96
:100690001AC0052710E0221F1DC010E021C04AE546
:1006A00002C032ED432FC4E1D0E032E011B31C6050
:1006B000939A02B311BB5CE020E865E320FF0527B5
:1006C00002BB279517951C3FF0F66695B8F7B1F772
:1006D00020FF052702BB279517951C3FD0F62795CD
:1006E000179517FF052700001C3F02BBB0F62991A4
:1006F0003A9519F7037F1091A300110FC651D0400E
:1007000002BB11F010939D0010E41ABF086011B3F2
:10071000137F402F437F54E05A95F1F702BB11BB82
:1007200042BB69CF83EF82BB8CE081BB2FE006C068
:10073000A89502C080E090E00197D1F72150D1F751
:1007400011BA8FEF88BB87B3806687BB92DE78943F
:10075000A89566DD5D9B12C080917A00909169003A
:10076000981761F0B79B0AC0E82FF0E0E659FF4FF9
:1007700090819CB98F5F8F7080937A008091A200E6
:1007800087FF0DC08091690090E020917A00821B64
:1007900091098F709927089714F41092A2005F9B1B
:1007A00010C080917B00883060F49CB1E82FF0E0AD
:1007B000E458FF4F90838F5F80937B00883009F46B
:1007C000C6988091910084FFC3CF60917B00611136
:1007D00005C080918400882309F4BACF8CE790E0AB
:1007E00019DD80917B0088708093840010927B00DB
:0807F000C69AAECFF894FFCFCA
:0207F8005AFFA6
:00000001FF
