:100000000C947A000C941C020C9497000C949700AA
:100010000C9497000C9497000C9497000C94970004
:100020000C9497000C9497000C9497000C949700F4
:100030000C9497000C9497000C9497000C949700E4
:100040000C9497000C9497000C9497000C949700D4
:100050000C9497000C9497000C9497000C949700C4
:100060000C9497000C949700040309042203770072
:10007000770077002E007200650063007500720043
:10008000730069006F006E002E006A00700010039C
:100090005500530042002D0032003300320012019F
:1000A000100102000008C016E10500010102000174
:1000B000090243000201008032090400000102022B
:1000C0000100052400100104240202052406000199
:1000D0000524010301070583030800FF090401004B
:1000E000020A00000007050102080000070581025E
:1000F0000800000011241FBECFEFD8E0DEBFCDBF47
:1001000011E0A0E0B1E0E6EDFAE002C005900D924A
:10011000AC30B107D9F712E0ACE0B1E001C01D92FC
:10012000A43EB107E1F70E94AB040C9469050C945E
:100130000000E9E6F0E0808182608083E89A8BE449
:100140008093210180934C018AE580932001809364
:100150004B0108951F93CF93DF93DC01162FEA0123
:10016000888184FF05C0898198E88927898302C036
:100170008AE58883AE014E5F5F4F212FFA018D9192
:10018000819321501216DCF3CA01612F0E941802DC
:100190001C5F1883DF91CF911F9108954BE451E0CC
:1001A0000E94AA00089540E251E00E94AA0008952A
:1001B0001F93CF93DF9360913101635067FDB7C008
:1001C00080912E01CCE0D0E0C81BD109CB5CDE4F82
:1001D00080912D01803120F4CE010E948F04A1C0B6
:1001E0008D3209F08DC0683009F09BC083EC80939C
:1001F00015018AE58093000110920C0188818076B8
:1002000029F0CE010E944F04282F67C09A811092D6
:100210001E018981882321F410921F0122E056C01B
:10022000853019F49093320150C08630C1F58B812E
:10023000813041F48EE990E09093300180932F015A
:1002400022E129C0823029F4CE010E943A04282FED
:1002500022C08330F9F48A81882341F488E690E053
:100260009093300180932F0124E015C0813041F438
:100270008CE690E09093300180932F0122E20BC036
:10028000823041F48EE890E09093300180932F010A
:1002900020E101C020E080E480930C011EC0883082
:1002A00021F421E084E391E013C0893019F49093A4
:1002B00034010BC08A3011F421E008C08B3029F4DE
:1002C0008BE48093210180934C0120E08EE191E04A
:1002D0009093300180932F0109C02F3F39F488811A
:1002E00087FD2E8180E880930C0106C08F818823D2
:1002F00019F48E81821708F0822F8093010111C0BA
:1003000080910C0187FF0DC0CE010E940F058F3F29
:1003100021F48EE18093000104C0882311F0109233
:10032000010180913101181614F41092310180916D
:10033000000184FF5AC0809101018F3F09F455C02C
:10034000182F893008F018E0811B809301018091FB
:10035000150198E8892780931501112399F180915F
:100360000C0187FF09C086E191E0612F0E947704AC
:10037000182F8930A0F526C020912F01309130012F
:1003800086FF0DC0A6E1B1E080E090E0F901E80F42
:10039000F91FE491ED9301961817C1F708C0912F4A
:1003A000D901E6E1F1E08D9181939150E1F711508F
:1003B000812F90E01F5F0196820F931F9093300171
:1003C00080932F0186E191E0612F0E941802612F36
:1003D0006C5F6C3041F08FEF8093010104C08FEFB0
:1003E000809301016EE16093000194E189B18C700A
:1003F00031F49150D9F71092320110922C01DF9113
:10040000CF911F910895A82FB92F80E090E041E08F
:1004100050EA609530E009C02D9182279795879525
:1004200010F084279527305EC8F36F5FA8F3089516
:10043000EADF8D939D930895CF93CFB7CF93C39564
:100440004B9BE9F74B9B09C04B9B07C04B9B05C0DF
:100450004B9B03C04B9B01C0A6C0DF93C0912E01F4
:10046000DD27CB5CDE4F4B9B02C0DF91EBCF2F93A0
:100470000F931F9309B12FEF03FB20F94F933F9385
:1004800019B14FEF012703FB21F93BE031C04E7F4B
:10049000012F19B1216028C0102F4D7F226000006C
:1004A00009B129C04B7F2460012F000019B12BC076
:1004B00019B1477F28602AC04F7E09B120612CC046
:1004C0004F7D19B120622FC04F7B09B1206432C02B
:1004D000422709B149934FEF0000102713FB20F981
:1004E00019B11C70C9F1297F91F2012703FB21F991
:1004F00009B1237F89F2315058F1102713FB22F9FB
:1005000019B1277E79F2012703FB23F92F7C81F2B1
:1005100009B1102713FB24F92F7971F200C019B12A
:10052000012703FB25F92F7359F200C009B11027E9
:1005300013FB26F9223040F200C019B1012703FB5A
:1005400027F9243028F64F77206819B10000F9CF39
:1005500011E01CBB00271CC03B503195C31BD04091
:1005600011E01CBB0881033C11F10B3401F1209117
:100570002C011981110F1213EDCF4A81441F093646
:1005800059F10D3211F0013E29F74F7009F0042F97
:10059000009333013F914F911F910F912F91DF9164
:1005A000CCB3C0FD4CCFCF91CFBFCF911895209148
:1005B0003301222379F3109131011123C1F5343035
:1005C000C2F13093310120932D0110912E013BE0B7
:1005D000311B30932E012DC00091310101303CF5CB
:1005E0000AE54F7049F43091000134FD24C00093B6
:1005F0000001C5E1D1E023C0433049F03091200132
:1006000034FD19C000932001C1E2D1E018C030913F
:100610004B0134FD10C000934B01CCE4D1E00FC07E
:100620002795A8F45150A9F4220F0000F9CF4AE50C
:1006300003C042ED01C0432FC4E1D0E032E01AB163
:100640001C605B9A1AB90BB120E41CE05F93012790
:1006500056E00BB9279520F4515021F4220FF9CF21
:10066000012756E000003B5A0BB9D0F2279528F439
:10067000515029F4220F0000F9CF012756E02795A9
:100680000BB920F4515021F4220FF9CF012756E085
:10069000299133230BB921F6037F10913201110FF9
:1006A000C651D0400BB911F010932C0111E01CBBC6
:1006B00008601AB1137F402F437F5F9100C000C0D4
:1006C0000BB91AB94BB966CFBF92CF92DF92EF92B6
:1006D000FF920F931F936B017C01B42E122F9695FE
:1006E000879577956795605A7C41894E9F4FA70102
:1006F00096010E9447052150304040405040809173
:10070000C00082608093C0001092C10081E0B816E2
:1007100011F440E303C04B2D4295407F802F90E0C1
:100720000597880F991F1695110F110F110F182B90
:10073000412B4093C2002093C4003093C50088E150
:100740008093C10087B98FEF88B91F910F91FF90F7
:10075000EF90DF90CF90BF9008950F931F9330914B
:10076000E1029091E20210C0E92FF0E0E052FE4F6A
:1007700080818093C6009F5F8091310187FF07C011
:10078000293028F010923101292F231B01C02F5F3F
:100790008091C00085FF0BC0391739F43093E20215
:1007A0009091E002E091DF0117C03599DDCF909381
:1007B000E202F6CF391761F08091C0002091C600A7
:1007C0008C7171F4F0E0E95AFE4F2083E32F04C0EE
:1007D000E093DF0144980AC0EF5F3E2F3F77E1507E
:1007E0008091C00087FDE6CFE093DF01809120017A
:1007F00084FF3DC06091DF01691721F48091E3021D
:100800008823A9F1162F191B1F77193008F018E05B
:10081000012F090F07FF10C00F77A7E5B1E0202FC8
:1008200030E02A0F3B1F05C0FD01E058FF4F8D91BE
:100830008083A217B307C1F7892F90E0895A9E4F92
:10084000612F0E94D3000093E002112361F0449ACB
:10085000183049F490E08091DF01801391E081E04D
:100860009827892F02C080E090E08093E3021F91D7
:100870000F910895FC018381813049F48EE990E065
:100880009093300180932F0180919E00089580EB1A
:1008900090E09093300180932F0183E40895FC0150
:1008A0002081822F8076803201F59181892F8052BC
:1008B000823010F48FEF0895923281F488B19281E2
:1008C0009170990F990F990F877F982B98B9809104
:1008D0000D01882319F482E080930D0127FD05C0E6
:1008E00081E08093E30280E0089580E00895FC01B8
:1008F0008091110180838091120181838091130185
:10090000828380911401838380910E01848380917E
:100910000F01858380911001868387E00895DC01B3
:100920009091E2020CC02E2F2F5F291739F0F0E0D2
:10093000E052FE4F8D9180832093E1026150E0915F
:10094000E102662381F791509E1B993018F48FEFD6
:100950008093310108950F932EE088E190E00FB667
:10096000F894A895809360000FBE2093600083EFF9
:100970008BB98CE08AB9A89584EC99E02CE231E03F
:10098000F9013197F1F70197D9F71AB880E895E2A4
:10099000A0E0B0E08093110190931201A0931301A5
:1009A000B093140110920E0110920F0188E0809311
:1009B000100160E875E280E090E040E020E008E0AF
:1009C0000E9464031092E2021092DF011092E00292
:1009D0001092E1020E94990010920D011092E30220
:1009E0007894A8950E94D8000E94AD0390910D01C3
:1009F0009923B9F380914B0184FFF3CF923021F416
:100A000082E091E068E003C08AE091E062E00E9449
:100A1000CE0080910D01815080930D01E2CF0F93A4
:100A2000FC01808180931101818180931201828178
:100A300080931301838180931401948190930E011C
:100A4000858180930F01068100931001833010F09F
:100A500010920F01913011F410920E01609111016A
:100A600070911201809113019091140140910F0136
:100A700020910E010E9464031092E2021092DF01A5
:100A80001092E0021092E10281E00F910895A1E23C
:100A90001A2EAA1BBB1BFD010DC0AA1FBB1FEE1FF8
:100AA000FF1FA217B307E407F50720F0A21BB30B43
:100AB000E40BF50B661F771F881F991F1A9469F7BF
:100AC00060957095809590959B01AC01BD01CF011B
:060AD0000895F894FFCF29
:0C0AD6005AFFA1200000000002000300F5
:00000001FF
