:100000000C9470000C9412020C948D000C948D00D2
:100010000C948D000C948D000C948D000C948D002C
:100020000C948D000C948D000C948D000C948D001C
:100030000C948D000C948D000C948D000C948D000C
:100040000C948D000C948D000C948D000C948D00FC
:100050000C948D00040309042203770077007700D5
:100060002E00720065006300750072007300690065
:100070006F006E002E006A007000100355005300E0
:1000800042002D0032003300320012011001020044
:100090000008C016E1050001010200010902430049
:1000A000020100803209040000010202010005245F
:1000B00000100104240202052406000105240103A6
:1000C00001070583030800FF09040100020A00007C
:1000D0000007050102080000070581020800000072
:1000E00011241FBECFE5D4E0DEBFCDBF10E0A0E6F7
:1000F000B0E0E0EAFAE002C005900D92AC36B1073C
:10010000D9F712E0ACE6B0E001C01D92A434B1070B
:10011000E1F70E9492040C944E050C94000085B700
:10012000826085BF8BB780648BBF8BE48093810036
:100130008093AC008AE5809380008093AB000895A3
:100140001F93CF93DF93DC01162FEA01888184FF90
:1001500005C0898198E88927898302C08AE5888358
:10016000AE014E5F5F4F212FFA018D918193215097
:100170001216DCF3CA01612F0E940E021C5F188365
:10018000DF91CF911F9108954BEA50E00E94A000AB
:10019000089540E850E00E94A00008951F93CF9377
:1001A000DF9360919100635067FDB7C080918E002E
:1001B000CCE0D0E0C81BD109CB56DF4F80918D0039
:1001C000803120F4CE010E947604A1C08D3209F066
:1001D0008DC0683009F09BC083EC809375008AE580
:1001E0008093600010926C008881807629F0CE01A7
:1001F0000E943604282F67C09A8110927E00898160
:10020000882321F410927F0022E056C0853019F433
:100210009093920050C08630C1F58B81813041F4BB
:100220008AE890E09093900080938F0022E129C0AB
:10023000823029F4CE010E942104282F22C083306D
:10024000F9F48A81882341F484E590E0909390004A
:1002500080938F0024E015C0813041F488E590E060
:100260009093900080938F0022E20BC0823041F483
:100270008AE790E09093900080938F0020E101C086
:1002800020E080E480936C001EC0883021F421E0DF
:1002900084E990E013C0893019F4909394000BC066
:1002A0008A3011F421E008C08B3029F48BE480936C
:1002B00081008093AC0020E08EE790E09093900066
:1002C00080938F0009C02F3F39F4888187FD2E81EC
:1002D00080E880936C0006C08F81882319F48E819A
:1002E000821708F0822F8093610011C080916C000A
:1002F00087FF0DC0CE010E94F4048F3F21F48EE1F0
:100300008093600004C0882311F0109261008091F6
:100310009100181614F4109291008091600084FFEF
:100320005AC0809161008F3F09F455C0182F893061
:1003300008F018E0811B809361008091750098E8B7
:10034000892780937500112399F180916C0087FFB4
:1003500009C086E790E0612F0E945E04182F893063
:10036000A0F526C020918F003091900086FF0DC02F
:10037000A6E7B0E080E090E0F901E80FF91FE49112
:10038000ED9301961817C1F708C0912FD901E6E740
:10039000F0E08D9181939150E1F71150812F90E021
:1003A0001F5F0196820F931F9093900080938F00A0
:1003B00086E790E0612F0E940E02612F6C5F6C3027
:1003C00041F08FEF8093610004C08FEF8093610054
:1003D0006EE16093600094E180B38C7031F49150D1
:1003E000D9F71092920010928C00DF91CF911F915B
:1003F0000895A82FB92F80E090E041E050EA609581
:1004000030E009C02D9182279795879510F08427B9
:100410009527305EC8F36F5FA8F30895EADF8D93E8
:100420009D930895CF93CFB7CF93C395839BE9F75F
:10043000839B09C0839B07C0839B05C0839B03C02C
:10044000839B01C0A6C0DF93C0918E00DD27CB56F1
:10045000DF4F839B02C0DF91EBCF2F930F931F934E
:1004600000B32FEF03FB20F94F933F9310B34FEFEF
:10047000012703FB21F93BE031C04E7F012F10B370
:10048000216028C0102F4D7F2260000000B329C0DA
:100490004B7F2460012F000010B32BC010B3477FA7
:1004A00028602AC04F7E00B320612CC04F7D10B35E
:1004B00020622FC04F7B00B3206432C0422700B3BC
:1004C00049934FEF0000102713FB20F910B31C7065
:1004D000C9F1297F91F2012703FB21F900B3237FA2
:1004E00089F2315058F1102713FB22F910B3277EFF
:1004F00079F2012703FB23F92F7C81F200B3102747
:1005000013FB24F92F7971F200C010B3012703FB0C
:1005100025F92F7359F200C000B3102713FB26F9F9
:10052000223040F200C010B3012703FB27F924302A
:1005300028F64F77206810B30000F9CF10E41ABFF7
:1005400000271CC03B503195C31BD04010E41ABF9C
:100550000881033C11F10B3401F120918C001981C9
:10056000110F1213EDCF4A81441F093659F10D3294
:1005700011F0013E29F74F7009F0042F009393000A
:100580003F914F911F910F912F91DF91CAB7C6FDF7
:100590004CCFCF91CFBFCF911895209193002223BC
:1005A00079F3109191001123C1F53430C2F13093E9
:1005B000910020938D0010918E003BE0311B309311
:1005C0008E002DC00091910001303CF50AE54F707E
:1005D00049F43091600034FD24C000936000C5E709
:1005E000D0E023C0433049F03091800034FD19C081
:1005F00000938000C1E8D0E018C03091AB0034FD1A
:1006000010C00093AB00CCEAD0E00FC02795A8F44F
:100610005150A9F4220F0000F9CF4AE503C042ED82
:1006200001C0432FC4E1D0E032E011B31C60939AC3
:1006300011BB02B320E41CE05F93012756E002BB2C
:10064000279520F4515021F4220FF9CF012756E0CD
:1006500000003B5A02BBD0F2279528F4515029F4F0
:10066000220F0000F9CF012756E0279502BB20F4A6
:10067000515021F4220FF9CF012756E0299133235D
:1006800002BB21F6037F10919200110FC651D0409A
:1006900002BB11F010938C0010E41ABF086011B374
:1006A000137F402F437F5F9100C000C002BB11BB8E
:1006B00042BB66CFBF92CF92DF92EF92FF920F9331
:1006C0001F936B017C01B42E122F96958795779519
:1006D0006795605A7C41894E9F4FA70196010E9401
:1006E0002C052150304040405040599A1AB881E0C2
:1006F000B81611F440EB04C04B2D4295407F406882
:10070000802F90E00597880F991F1695110F110FF4
:10071000110F182B412B40BD29B930BD88E18AB992
:1007200084BB8FEF85BB1F910F91FF90EF90DF90FF
:10073000CF90BF9008950F931F93309141029091F5
:1007400042020FC0E92FF0E0E05CFE4F80818CB9DF
:100750009F5F8091910087FF07C0293028F0109299
:100760009100292F231B01C02F5F5D9B0BC0391700
:1007700039F43093420290914002E0913F0115C05C
:100780009D99E0CF90934202F6CF391751F08BB18B
:100790002CB18C7171F4F0E0E954FF4F2083E32F0A
:1007A00004C0E0933F01AC9808C0EF5F3E2F3F7755
:1007B000E1505F99EACFE0933F018091800084FF90
:1007C0003DC060913F01691721F480914302882365
:1007D000A9F1162F191B1F77193008F018E0012F07
:1007E000090F07FF10C00F77A7EBB0E0202F30E014
:1007F0002A0F3B1F05C0FD01E058FF4F8D918083FC
:10080000A217B307C1F7892F90E089549F4F612F3A
:100810000E94C90000934002112361F0AC9A183085
:1008200049F490E080913F01801391E081E09827A6
:10083000892F02C080E090E0809343021F910F91C6
:100840000895FC018381813049F48AE890E0909317
:10085000900080938F0080918A0008958CE990E049
:100860009093900080938F0083E40895FC01208191
:10087000822F8076803201F59181892F80528230DB
:1008800010F48FEF0895923281F485B392819170C4
:10089000990F990F990F877F982B95BB80916D00C9
:1008A000882319F482E080936D0027FD05C081E064
:1008B0008093430280E0089580E00895FC018091D8
:1008C00071008083809172008183809173008283A4
:1008D00080917400838380916E00848380916F0087
:1008E000858380917000868387E00895DC01909174
:1008F00042020CC02E2F2F5F291739F0F0E0E05C88
:10090000FE4F8D918083209341026150E09141021E
:10091000662381F791509E1B993018F48FEF8093D6
:10092000910008950F932EE088E190E00FB6F894BF
:10093000A89581BD0FBE21BD83EF82BB8CE081BB3A
:10094000A89584EC99E02CE231E0F9013197F1F7B8
:100950000197D9F711BA80E895E2A0E0B0E0809362
:10096000710090937200A0937300B0937400109282
:100970006E0010926F0088E08093700060E875E26E
:1009800080E090E040E020E008E00E945A031092EE
:10099000420210923F0110924002109241020E94C6
:1009A0008F0010926D00109243027894A8950E94D7
:1009B000CE000E949B0390916D009923B9F3809122
:1009C000AB0084FFF3CF923021F482E690E068E040
:1009D00003C08AE690E062E00E94C40080916D004E
:1009E000815080936D00E2CF0F93FC018081809352
:1009F0007100818180937200828180937300838172
:100A000080937400948190936E00858180936F0031
:100A1000068100937000833010F010926F009130C7
:100A200011F410926E0060917100709172008091CB
:100A300073009091740040916F0020916E000E94AD
:100A40005A031092420210923F01109240021092FB
:100A5000410281E00F910895A1E21A2EAA1BBB1B4F
:100A6000FD010DC0AA1FBB1FEE1FFF1FA217B3077A
:100A7000E407F50720F0A21BB30BE40BF50B661F90
:100A8000771F881F991F1A9469F760957095809554
:100A900090959B01AC01BD01CF010895F894FFCF63
:0C0AA0005AFFA12000000000020003002B
:00000001FF
