:1000000054C0FAC30FC205C46BC06AC069C068C0DF
:1000100067C066C065C064C063C062C01CC4120112
:10002000100102000008C016E105000101020001F4
:1000300010035500530042002D00320033003200FF
:1000400022037700770077002E00720065006300BE
:1000500075007200730069006F006E002E006A0068
:100060007000040309040902430002010080320900
:100070000400000102020100052400100104240212
:100080000205240600010524010301070583030876
:1000900000FF09040100020A000000070501020236
:1000A0000000070581020800000011241FBECFE5F3
:1000B000D2E0DEBFCDBF10E0A0E6B0E0E8E1FCE0BA
:1000C00002C005900D92AC36B107D9F711E0ACE64D
:1000D000B0E001C01D92A034B107E1F71BD59AC56D
:1000E0008FCFEF92FF92CF93382F792FC62F7A01BF
:1000F000FA01808184FF05C0218188E828272183B7
:1001000003C08AE5FA018083C7010296E32FF72F27
:10011000DC013C2F380F21912D93232F2A1B12161F
:10012000D4F36C2F68D1CC5FF701C083CF91FF90DF
:10013000EF9008954CE750E0D4CF47EA50E0D1CF9C
:10014000EF92FF92CF9360918D00635067FDB9C02D
:1001500080918A009CE0E92EF12CE81AF10881E9EF
:1001600090E0E80EF91E80918900803118F4C701F3
:10017000B4D4A1C08D3209F08FC0683009F09BC0A3
:1001800083EC809371008AE58093600010926C008C
:10019000F7018081807619F0C70159D469C0F70151
:1001A000928110927A008181811106C010927B00A9
:1001B0002AE730E082E058C0853019F490938E0031
:1001C00050C08630B1F5F7018381813041F48EE172
:1001D00090E090938C0080938B0082E126C0823067
:1001E00019F4C70103D421C08330F1F4911108C080
:1001F00082E690E090938C0080938B0084E015C0A1
:10020000913041F480E490E090938C0080938B00D7
:1002100082E20BC0923041F480E390E090938C0036
:1002200080938B0080E101C080E090E490936C00AB
:100230001FC0883079F0893019F49093900011C074
:100240008A3059F08B3069F48BE480937D00809381
:10025000A80007C020E930E002C02AE730E081E0D2
:1002600003C02AE730E080E030938C0020938B00BD
:10027000F7018F3F39F4908197FD868190E8909344
:100280006C0007C09781911104C09681981708F4FB
:10029000892F809361000FC080916C0087FF0BC095
:1002A000C7010DD48F3F21F48EE18093600003C01D
:1002B00081111092610080918D00181614F4109233
:1002C0008D008091600084FF56C0809161008F3F57
:1002D00009F451C0C82F893008F0C8E08C1B809306
:1002E00061008091710098E8892780937100CC2388
:1002F00089F180916C0087FF06C06C2F82E790E047
:10030000CFD3C82F25C040918B0050918C0086FF21
:100310000BC0FA01A2E7B0E08C2F8A0F94919D9355
:1003200031968A13FBCF09C0DA01E2E7F0E08C2FA7
:100330008E0F9D9191938E13FCCF2C2F215030E086
:100340002F5F3F4F240F351F30938C0020938B007D
:10035000C93058F46C2F82E790E04DD0CC5FCC30A0
:1003600041F08FEF8093610004C08FEF80936100B4
:10037000CEE1C093600084E196B3987131F481506E
:10038000D9F710928E0010928800C1E08111C0E070
:1003900080916D008C1739F0C11103C0F894B8D169
:1003A0007894C0936D00CF91FF90EF900895AB9A31
:1003B0008BB780628BBF8BE480937D008093A80015
:1003C0008AE580937C008093A7000895A82FB92F19
:1003D00080E090E041E050EA609530E009C02D9166
:1003E00082279795879510F084279527305EC8F36C
:1003F0006F5FA8F30895EADF8D939D930895A6E0BB
:1004000088279927AA9569F00197E1F3B499FCCF61
:10041000B49BFECF81E09927A6B3019611F0A87195
:10042000D9F70895CF93CFB7CF93C395B49BE9F78E
:10043000B49B0BC0B49B09C0B49B07C0B49B05C060
:10044000B49B03C0B49B01C0D8C00F92DF93C0918E
:100450008A00DD27CF56DF4F012EB49B03C0DF910A
:100460000F90E6CF2F930F931F934F932FEF4F6F64
:1004700006B304FB20F95F933F9350E03BE065C077
:1004800016B30126502954FDC89556B3012704FB25
:1004900025F92F7306B3B1F05027102714FB26F966
:1004A00006B22230F0F000C016B3012704FB27F992
:1004B0000126502906B22430E8F54F77206816B39C
:1004C0000000F6CF50274F7D206206B2102F0000AB
:1004D00000C006B300265029102714FB26F906B2E7
:1004E000E2CF4F7B06B3206400C0DACF012650294B
:1004F000187106B269F14E7F2160012F16B328C032
:10050000002650294D7F06B22260102F29C00126F7
:1005100050294B7F06B22460012F2DC016B301264F
:100520005029477F2860000006B22EC04F7E06B3D8
:10053000206130C0422706B3499300265029102776
:1005400006B24FEF14FB20F9297F16B379F2187128
:1005500059F10126502906B2012704FB21F9237F16
:1005600006B371F2002650293150D0F006B21027A0
:1005700014FB22F9277E16B351F2012650290127D8
:1005800004FB06B223F92F7C49F2000006B31027C2
:1005900014FB24F90026502906B22F7939F270CFC6
:1005A00010E21ABF00271CC03B503195C31BD0403E
:1005B00010E21ABF0881033C21F10B3411F12091A4
:1005C00088001981110F1213EDCF4A81441F09369B
:1005D00069F10D3211F0013E29F74F7009F0042F37
:1005E00000938F003F915F914F911F910F912F9139
:1005F000DF910F90CAB7C5FD18CFCF91CFBFCF9174
:10060000189520918F00222369F310918D001123FA
:10061000D1F53430D2F130938D00209389001091C0
:100620008A003BE0311B30938A002FC000918D007F
:1006300001304CF50AE54F7049F43091600034FD0B
:1006400025C000936000C1E7D0E024C0433049F0EA
:1006500030917C0034FD1AC000937C00CDE7D0E0DF
:1006600019C03091A70034FD11C00093A700C8EA5B
:10067000D0E010C0052710E000C021C0052710E021
:10068000C89508BB14C03AE501C032ED032EC0E0A6
:10069000D0E032E017B31861C49A08B317BB58E131
:1006A00020E84FEF20FF052708BB279517951C3F33
:1006B00028F700004552B0F720FF0527279508BB13
:1006C00017951C3FB8F629913A9561F7077E10916E
:1006D0008E00110F08BBC250D04011F0109388005B
:1006E00010E21ABF006117B3177E402F477E54E017
:1006F0005A95F1F708BB17BB48BB74CF80E090E078
:1007000073D28F3F09F002C081B78C5F81BF08951B
:10071000CF92DF92EF92FF920F931F93CF93DF93CD
:1007200001B76DDE845399407C0197FF03C0F194BB
:10073000E194F10888E981BF62DE8433994014F0C6
:10074000C0E001C0C0E887E0C82ED12CD0E41C2F47
:100750001D0F11BF54DE9C01243389E038070CF4CF
:10076000C12FD69581E0C81AD10889F724533940A2
:1007700037FF03C0319521953109E216F30614F4D1
:1007800001BF31C08C2F825081BF6901EC2EF12C4A
:1007900022E0E20EF11C10C032DE8453994097FF34
:1007A00003C09195819591098C159D0514F4C1B7ED
:1007B0006C0181B78F5F81BF81B790E0E816F906C1
:1007C0005CF7C1BF80E090E00FD28C1761F06C2F16
:1007D00080E090E0DF91CF911F910F91FF90EF901B
:1007E000DF90CF9009C2DF91CF911F910F91FF90C1
:1007F000EF90DF90CF900895B299189501BB05B5A1
:100800000FBD09E00DBD07E000BF00E20BBF01B363
:10081000189501BB0FB702BB0DB50A950DBD79F058
:100820000BB50695B29900680BBD13BB0FB51EB58D
:10083000011B0FBD13B302B30FBF01B3189500BF67
:1008400004BD0BB50DBB00E40ABF00E60BBF02B34D
:100850000FBF01B3189501BBF09907C00BE40EB9A7
:100860000EBB08B50FB901B3189500E40EB900E04E
:1008700003BF01B31895881F9795881F9795881F08
:100880009795881F9795881F9795881F9795881F1C
:100890009795881F9795892F08959C0181E080BDC9
:1008A00080E888B9B99ABA988BB78F7B8BBF1ABC8E
:1008B00013BE10BE80EE8EB984E58DB98FEF8FB96F
:1008C000B9017695679580E090E06C5E70418C4F41
:1008D0009F4F40E050E066D121502EBD29BD1DBC88
:1008E0008EB590E00196959587959595879581951C
:1008F00085BD95B58EB5891718F08EB58F5F85BD0E
:1009000082E08ABD81E084BD90E499BF85B78C7F89
:10091000826085BF9ABF8BB780648BBF10923E0107
:100920001092BB0010923C0110923D01089584B5D5
:1009300081110FC08091BB00883058F49DB3E82F1F
:10094000F0E0ED54FF4F90838F5F8093BB0081E018
:1009500084BD80917C0084FF12C06091BB00611156
:1009600004C080913F01882351F083EB90E0E2DBEB
:100970008091BB00887080933F011092BB0083B7C9
:10098000811133C0E0913E0180913D018E1769F1E4
:10099000F0E0E454FF4F80816EDF90913E019F5F55
:1009A0009F7790933E0112BE9BE49EB91EBA282FFA
:1009B00030E044E0220F331F4A95E1F72F6028BD55
:1009C0008695F8948FB983E083BF789480918D00E9
:1009D00087FF0BC080913E01815090913D01891BA2
:1009E0008F77823010F010928D000895FC01838182
:1009F000813049F48EE190E090938C0080938B00DD
:100A000080911E00089586E690E090938C0080937C
:100A10008B0083E40895CF93DF9300D0CDB7DEB78A
:100A20000FC01A82198206C029813A812F5F3F4F79
:100A30003A83298329813A812E3A3340A9F781509C
:100A40008111EFCF0F900F90DF91CF910895EF922A
:100A5000FF927C01FC0180818076803209F01AC00F
:100A6000F7018181982F90529230B0F0823259F480
:100A7000C59A84E6D0DFC59880916E00811103C0CD
:100A800082E080936E00F701808187FD03C081E0E2
:100A900080933F0180E001C08FEFFF90EF900895B9
:100AA000FC0180916F0080838091700081831282AD
:100AB00013821482158288E0868387E00895FC0102
:100AC000208120936F0081818093700080916F005E
:100AD00090917000E2DE81E008950DC0FC0131913B
:100AE000CF01E22FF0E0E454FF4F30832F5F2F77E8
:100AF00020933D01615020913D016111EFCF809124
:100B00003E018150821B8F77823018F48FEF8093E3
:100B10008D0008952EE088E190E00FB6F894A89536
:100B200081BD0FBE21BDEADD87EC88BB88E387BBB2
:100B3000A89527EA86E99CE0215080409040E1F7A3
:100B400000C0000017BA80EC92E19093700080938F
:100B50006F00A3DEBD9A2BDC10926E0010923F0155
:100B60007894A895EDDAE3DE80916E008823C9F3CE
:100B70008091A70084FFF5CFC59A84E64CDFC59825
:100B800080916E00823021F468E082E690E003C03C
:100B900062E08AE690E0D1DA80916E008150809325
:100BA0006E00DFCFA1E21A2EAA1BBB1BFD010DC0F8
:100BB000AA1FBB1FEE1FFF1FA217B307E407F5070D
:100BC00020F0A21BB30BE40BF50B661F771F881FE9
:100BD000991F1A9469F760957095809590959B017F
:100BE000AC01BD01CF010895E199FECF9FBB8EBB43
:100BF000E09A99278DB30895262FE199FECF1CBA6C
:100C00009FBB8EBB2DBB0FB6F894E29AE19A0FBE44
:080C100001960895F894FFCF4E
:0C0C18005AFFA1200000000002000300B1
:00000001FF
