:1000000054C0ECC133C33FC36BC06AC069C068C091
:1000100067C066C065C064C063C062C056C30403E5
:10002000090422037700770077002E007200650034
:10003000630075007200730069006F006E002E008F
:100040006A00700010035500530042002D0032007A
:10005000330032001201100102000008C016E10551
:10006000000101020001090243000201008032097F
:100070000400000102020100052400100104240212
:100080000205240600010524010301070583030876
:1000900000FF09040100020A000000070501020236
:1000A0000000070581020800000011241FBECFE5F3
:1000B000D1E0DEBFCDBF10E0A0E6B0E0E4EFF9E0B4
:1000C00002C005900D92AC36B107D9F711E0ACE64D
:1000D000B0E001C01D92AF33B107E1F719D488C475
:1000E0008FCF85B7826085BF8BB780648BBF8BE471
:1000F00080937C008093A7008AE580937B008093A7
:10010000A60008951F93CF93DF93DC01162FEA0119
:10011000888184FF05C0898198E88927898302C086
:100120008AE58883AE014E5F5F4F212FFA018D91E2
:10013000819321501216DCF3CA01612F4BD11C5F51
:100140001883DF91CF911F91089546EA50E0DADFDE
:1001500008954BE750E0D6DF08951F93CF93DF93C8
:1001600060918C00635067FDB6C080918900CCE03F
:10017000D0E0C81BD109C057DF4F80918800803183
:1001800018F4CE01A9D3A1C08D3209F08EC0683019
:1001900009F09BC083EC809370008AE58093600037
:1001A00010926C008881807621F0CE0167D3282FD1
:1001B00069C09A81109279008981882331F4109264
:1001C0007A0089E790E022E058C0853019F49093D6
:1001D0008D0050C08630B9F58B81813041F484E5C3
:1001E00090E090938B0080938A0022E128C08230B7
:1001F00021F4CE012ED3282F22C08330F9F48A8136
:10020000882341F48EE190E090938B0080938A00E4
:1002100024E015C0813041F482E290E090938B009D
:1002200080938A0022E20BC0823041F484E490E0A3
:1002300090938B0080938A0020E101C020E080E44D
:1002400080936C001FC0883019F48FE890E009C0DB
:10025000893019F490938F000DC08A3021F489E71A
:1002600090E021E00AC08B3029F48BE480937C007D
:100270008093A70089E790E020E090938B00809323
:100280008A0009C02F3F39F4888187FD2E8180E8DC
:1002900080936C0006C08F81882319F48E818217A9
:1002A00008F0822F8093610010C080916C0087FF5E
:1002B0000CC0CE016DD38F3F21F48EE1809360009E
:1002C00004C0882311F01092610080918C001816F0
:1002D00014F410928C008091600084FF58C08091CB
:1002E00061008F3F09F453C0182F893008F018E0DF
:1002F000811B809361008091700098E8892780932A
:100300007000112391F180916C0087FF08C081E794
:1003100090E0612FD2D2182F893098F526C0209115
:100320008A0030918B0086FF0DC0A1E7B0E080E02D
:1003300090E0F901E80FF91FE491ED930196181789
:10034000C1F708C0D901912FE1E7F0E08D918193C9
:100350009150E1F71150812F90E01F5F0196820FBD
:10036000931F90938B0080938A0081E790E0612F28
:1003700031D0612F6C5F6C3041F08FEF8093610062
:1003800004C08FEF809361006EE16093600094E1A0
:1003900086B3857031F49150D9F710928D00109288
:1003A0008700DF91CF911F910895A82FB92F80E08A
:1003B00090E041E050EA609530E009C02D9182273D
:1003C0009795879510F084279527305EC8F36F5F67
:1003D000A8F30895EADF8D939D930895CF93CFB747
:1003E000CF93C395B09BE9F7B09B09C0B09B07C002
:1003F000B09B05C0B09B03C0B09B01C0A6C0DF93FB
:10040000C0918900DD27C057DF4FB09B02C0DF914C
:10041000EBCF2F930F931F9306B32FEF00FB20F921
:100420004F933F9316B34FEF012700FB21F93BE0B9
:1004300031C04E7F012F16B3216028C0102F4D7F91
:100440002260000006B329C04B7F2460012F00000A
:1004500016B32BC016B3477F28602AC04F7E06B361
:1004600020612CC04F7D16B320622FC04F7B06B396
:10047000206432C0422706B349934FEF0000102793
:1004800010FB20F916B31570C9F1297F91F20127ED
:1004900000FB21F906B3237F89F2315058F1102770
:1004A00010FB22F916B3277E79F2012700FB23F90E
:1004B0002F7C81F206B3102710FB24F92F7971F2FB
:1004C00000C016B3012700FB25F92F7359F200C0B5
:1004D00006B3102710FB26F9223040F200C016B3F5
:1004E000012700FB27F9243028F64F77206816B340
:1004F0000000F9CF10E41ABF00271CC03B50319513
:10050000C31BD04010E41ABF0881033C11F10B3427
:1005100001F1209187001981110F1213EDCF4A814B
:10052000441F093659F10D3211F0013E29F74F7081
:1005300009F0042F00938E003F914F911F910F916E
:100540002F91DF91CAB7C6FD4CCFCF91CFBFCF91CE
:10055000189520918E00222379F310918C0011239D
:10056000C1F53430C2F130938C0020938800109193
:1005700089003BE0311B309389002DC000918C0035
:1005800001303CF50AE54F7049F43091600034FDCC
:1005900024C000936000C0E7D0E023C0433049F09E
:1005A00030917B0034FD19C000937B00CCE7D0E094
:1005B00018C03091A60034FD10C00093A600C7EA11
:1005C000D0E00FC02795A8F45150A9F4220F0000E5
:1005D000F9CF4AE503C042ED01C0432FC4E1D0E0AA
:1005E00032E017B31560C09A17BB08B320E415E0DA
:1005F0005F93012756E008BB279520F4515021F462
:10060000220FF9CF012756E000003B5A08BBD0F279
:10061000279528F4515029F4220F0000F9CF012723
:1006200056E0279508BB20F4515021F4220FF9CF52
:10063000012756E02991332308BB21F60A7F109148
:100640008D00110FC651D04008BB11F010938700E8
:1006500010E41ABF016017B31A7F402F4A7F5F91E1
:1006600000C000C008BB17BB48BB66CFB599189542
:1006700001BB05B50FBD09E00DBD07E000BF00E4FB
:100680000BBF01B3189501BB0FB702BB0DB50A959F
:100690000DBD79F00BB50695B59900680BBD13BB80
:1006A0000FB51EB5011B0FBD13B302B30FBF01B3CE
:1006B000189500BF04BD0BB50DBB00E20ABF00E6F4
:1006C0000BBF02B30FBF01B3189501BBF09907C070
:1006D0000BE40EB90EBB08B50FB901B3189500E4D1
:1006E0000EB900E003BF01B31895881F9795881FC6
:1006F0009795881F9795881F9795881F9795881FAE
:100700009795881F9795881F9795892F08959C0125
:1007100081E080BD80E888B9B99ABD988BB78F7D9C
:100720008BBF1ABC13BE10BE80EE8EB984E58DB9A6
:100730008FEF8FB9B9017695679580E090E06459A5
:1007400073428D4F9F4F40E050E030D121502EBD7D
:100750008EB589BD1DBC8EB590E0019695958795A7
:1007600095958795819585BD95B58EB5891718F0B6
:100770008EB58F5F85BD82E08ABD81E084BD80E457
:1007800089BF80E285BB8ABF8BB780628BBF109226
:100790003D011092BA0010923B0110923C01089565
:1007A00084B5882379F49091BA00983058F48DB3C9
:1007B000E92FF0E0EE54FF4F80839F5F9093BA00E3
:1007C00081E084BD80917B0084FF12C06091BA00FB
:1007D000662321F480913E01882351F082EB90E062
:1007E000B8DC8091BA00887080933E011092BA0004
:1007F00083B7882369F5E0913D0180913C018E1714
:1008000039F1F0E0E554FF4F80816FDF20913D0129
:100810002F5F2F7720933D0112BE9BE49EB91EBA35
:10082000982F9295907F9F6098BD8695F8948FB988
:1008300083E083BF789480918C0087FF09C080910A
:100840003C018095820F8F77823010F010928C00DF
:100850000895FC018381813049F484E590E0909310
:100860008B0080938A0080915400089586E690E082
:1008700090938B0080938A0083E40895FC0120818B
:10088000822F80768032B9F49181892F8052823014
:1008900010F48FEF0895923239F480916D0088231F
:1008A00019F482E080936D0027FD05C081E08093FC
:1008B0003E0180E0089580E00895FC0180916E0083
:1008C000808380916F00818312821382148215824B
:1008D00088E0868387E00895DC010BC0E92FF0E013
:1008E000E554FF4F8D9180839F5F9F7790933C01EC
:1008F000615090913C01662389F780913D018150C0
:10090000891B8F77823018F48FEF80938C000895C5
:100910002EE088E190E00FB6F894A89581BD0FBE57
:1009200021BD8AEF88BB85E087BBA89584EC99E060
:100930002CE231E0F9013197F1F70197D9F717BAB5
:1009400080EC92E190936F0080936E00E0DEC9DB53
:1009500010926D0010923E017894A895FEDB20DF86
:1009600090916D009923C9F38091A60084FFF5CF83
:10097000923021F482E690E068E003C08AE690E0DD
:1009800062E0E3DB80916D00815080936D00E5CFE4
:10099000FC01808180936E00818180936F00809143
:1009A0006E0090916F00B3DE81E00895A1E21A2EEF
:1009B000AA1BBB1BFD010DC0AA1FBB1FEE1FFF1F03
:1009C000A217B307E407F50720F0A21BB30BE40B53
:1009D000F50B661F771F881F991F1A9469F760959A
:1009E0007095809590959B01AC01BD01CF01089554
:0409F000F894FFCFA9
:0C09F4005AFFA1200000000002000300D8
:00000001FF
